S01000004C6162364E616E6F2E7372656343
S11300000C9434000C943E000C943E000C943E007E
S11300100C943E000C943E000C943E000C943E0064
S11300200C943E000C943E000C943E000C943E0054
S11300300C943E000C943E000C943E000C943E0044
S11300400C943E000C943E000C943E000C943E0034
S11300500C943E000C943E000C943E000C943E0024
S11300600C943E000C943E0011241FBECFEFD8E048
S1130070DEBFCDBF0E9453000C9492000C9400008C
S11300801092C50087E68093C40088E08093C10085
S113009086E08093C20008959091C00095FFFCCF44
S11300A08093C60008958AB183708AB98BB18C6F2E
S11300B08BB90E944000DFEFC9B1C2FD05C0D2FF79
S11300C003C081E30E944C00C3FD05C0D3FF03C0FD
S11300D082E30E944C00C4FD05C0D4FF03C083E347
S11300E00E944C00C5FD05C0D5FF03C084E30E94F7
S11300F04C00C6FD05C0D6FF03C085E30E944C003A
S1130100CC232CF0DD231CF486E30E944C002FEF5B
S113011080E792E0215080409040E1F700C0000069
S10B0120DC2FCACFF894FFCFD5
S9030000FC
