:100000000C9434000C9451000C9451000C94510049
:100010000C9451000C9451000C9451000C9451001C
:100020000C9451000C9451000C9451000C9451000C
:100030000C9451000C9451000C9451000C945100FC
:100040000C9451000C946A010C9451000C945100D2
:100050000C9451000C9451000C9451000C945100DC
:100060000C9451000C94510011241FBECFEFD8E026
:10007000DEBFCDBF11E0A0E0B1E0E8E2FAE002C0EF
:1000800005900D92AA31B107D9F721E0AAE1B1E0BC
:1000900001C01D92A232B207E1F70E94D5000C9474
:1000A00012050C94000080E480937C0087E8809324
:1000B0007A000895ECE7F0E09081907F8F70892BB3
:1000C0008083EAE7F0E080818064808380917A0019
:1000D00086FDFCCF809178009091790008959C0175
:1000E000A8E8B3E10E9419022FEF33E040E050E0AE
:1000F0000E94F701C90108950F931F93CF93DF93D7
:10010000CDB7DEB7A8970FB6F894DEBF0FBECDBF50
:10011000182F092FAB01FB01F695E795F695E795AA
:10012000F695E7959F01A5ECB0E20E941902929521
:1001300082958F7089279F70892768EE73E0869F6C
:100140009001879F300D969F300D1124421B530B59
:100150005F934F939F010E941902929582958F7031
:1001600089279F7089279F938F930F931F9380E018
:1001700091E09F938F938E010F5F1F4F1F930F93FB
:100180000E942802C8010E94EA010FB6F894DEBF5F
:100190000FBECDBFA8960FB6F894DEBF0FBECDBF81
:1001A000DF91CF911F910F910895CF93DF931F920D
:1001B000CDB7DEB70E9453000E94410160E875E2AE
:1001C00080E090E00E94BC010E943701789480E0BA
:1001D0000E945A0080E00E945A007C0181E00E9447
:1001E0005A0081E00E945A008C01C7010E946F00F2
:1001F000E82EF92EC8010E946F00082F192F282F12
:10020000492F6E2D8F2D0E944F01CE0101960E9425
:100210005901882319F089810E9424016E2D7F2DB8
:1002200080E191E00E947C00602F712F85E191E0D8
:100230000E947C002FEF81EE94E02150804090409E
:10024000E1F700C00000C3CF9BB1282F30E0220FA0
:10025000331F220F331F9370292B2BB995B19C7F2D
:100260008295869586958370892B85B908958AB184
:100270008C6F8AB984B1836084B980E00E942401C4
:10028000089584B1806184B984B1837D84B910926A
:100290001D0110921C011EBC80EC8CBD08959FB7FF
:1002A000F894EEE1F1E080836183428323839FBF72
:1002B0000895FC019FB7F89420911A01222339F088
:1002C00080911B01808310921A0181E001C080E0BF
:1002D0009FBF08951F920F920FB60F9211248F9314
:1002E0009F93EF93FF939EB580911C018130C1F0E5
:1002F00018F0823061F134C0953A49F410921D0132
:1003000081E080931C0180911E018EBD2CC09A3526
:1003100029F482E080931C011EBC25C01EBC23C0B2
:1003200080911D018F5F80931D0180911D0184309C
:1003300040F4E0911D01F0E0E25EFE4F80818EBD51
:1003400012C010921D0110921C011EBC0CC0909393
:100350001B0181E080931A0110921C011EBC03C096
:1003600010921C011EBCFF91EF919F918F910F90F5
:100370000FBE0F901F901895DC01CB01880F991FBD
:10038000AA1FBB1F880F991FAA1FBB1F9C01AD018D
:10039000220F331F441F551F220F331F441F551FA9
:1003A00060E074E284EF90E00E94F701215031098F
:1003B0003093C5002093C40088E98093C10086E093
:1003C0008093C20008959091C00095FFFCCF809368
:1003D000C6000895CF93DF93EC0103C00E94E301B0
:1003E000219688818111FACFDF91CF910895A1E202
:1003F0001A2EAA1BBB1BFD010DC0AA1FBB1FEE1F9F
:10040000FF1FA217B307E407F50720F0A21BB30BE9
:10041000E40BF50B661F771F881F991F1A9469F765
:1004200060957095809590959B01AC01BD01CF01C1
:100430000895A29FB001B39FC001A39F700D811DBD
:100440001124911DB29F700D811D1124911D0895DD
:10045000AEE0B0E0EEE2F2E00C94E9040D891E8912
:1004600086E08C831A8309838FEF9FE79E838D83B9
:10047000AE01475E5F4F6F89788DCE0101960E9475
:100480004A02EF81F885E00FF11F10822E96E4E01A
:100490000C940505ABE0B0E0E0E5F2E00C94DB0481
:1004A0006C017B018A01FC0117821682838181FF26
:1004B000CCC1CE0101963C01F6019381F70193FD79
:1004C000859193FF81917F01882309F4BAC1853218
:1004D00039F493FD859193FF81917F01853229F451
:1004E000B60190E00E944104E7CF912C212C312CE1
:1004F000FFE1F315D8F08B3279F038F4803279F0DF
:100500008332A1F4232D20611DC08D3261F0803330
:1005100069F4232D216016C0832D8260382EE32DCF
:10052000E4603E2E2AC0F32DF8601DC037FC2DC0BC
:1005300020ED280F2A3040F08E32B9F436FC81C10C
:10054000232D2064322E19C036FE06C08AE0989E04
:10055000200D1124922E11C0EAE02E9E200D1124B0
:10056000222EF32DF0623F2E08C08C3621F4832D0D
:100570008068382E02C0883641F4F70193FD8591DA
:1005800093FF81917F018111B3CF982F9F7D955467
:10059000933028F40C5F1F4F9FE399830DC083367F
:1005A00031F0833771F0833509F059C021C0F8016B
:1005B000808189830E5F1F4F88248394912C53017F
:1005C00013C02801F2E04F0E511CF801A080B18049
:1005D00036FE03C0692D70E002C06FEF7FEFC501EA
:1005E0000E9436044C018201F32DFF773F2E16C086
:1005F000280122E0420E511CF801A080B18036FE95
:1006000003C0692D70E002C06FEF7FEFC5010E944B
:100610002B044C01F32DF0683F2E820133FC1BC0EC
:10062000822D90E088169906B0F4B60180E290E041
:100630000E9441042A94F4CFF50137FC859137FEDE
:1006400081915F01B60190E00E94410421102A943B
:1006500021E0821A91088114910471F7E8C0843670
:1006600011F0893641F5F80137FE07C060817181CC
:10067000828193810C5F1F4F08C060817181072EBA
:10068000000C880B990B0E5F1F4FF32DFF763F2E4A
:1006900097FF09C090958095709561957F4F8F4F1A
:1006A0009F4FF0683F2E2AE030E0A3010E947D04B6
:1006B000882E861845C0853731F4232D2F7EB22E23
:1006C0002AE030E025C0932D997FB92E8F36C1F0F6
:1006D00018F4883579F0B5C0803719F0883721F0E3
:1006E000B0C0E92FE061BE2EB4FE0DC0FB2DF4605A
:1006F000BF2E09C034FE0AC0292F2660B22E06C0C4
:1007000028E030E005C020E130E002C020E132E026
:10071000F801B7FE07C060817181828193810C5F0F
:100720001F4F06C06081718180E090E00E5F1F4F17
:10073000A3010E947D04882E8618FB2DFF773F2E93
:1007400036FE0DC0232D2E7FA22E891458F434FEC0
:100750000BC032FC09C0832D8E7EA82E05C0B82C9C
:10076000A32C03C0B82C01C0B92CA4FE0FC0FE01FD
:10077000E80DF11D8081803321F49A2D997EA92EF8
:1007800009C0A2FE06C0B394B39404C08A2D867833
:1007900009F0B394A3FC11C0A0FE06C0B21488F403
:1007A000280C922C9B180EC0B21460F4B60180E2A3
:1007B00090E00E944104B394F7CFB21418F42B18C0
:1007C00002C0982C212CA4FE10C0B60180E390E05A
:1007D0000E944104A2FE17C0A1FC03C088E790E07C
:1007E00002C088E590E0B6010CC08A2D867859F0E9
:1007F000A1FE02C08BE201C080E2A7FC8DE2B6013F
:1008000090E00E944104891438F4B60180E390E03E
:100810000E9441049A94F7CF8A94F301E80DF11DE8
:100820008081B60190E00E9441048110F5CF222022
:1008300009F442CEB60180E290E00E9441042A947D
:10084000F6CFF6018681978102C08FEF9FEF2B963E
:10085000E2E10C94F704FC01059061507040011036
:10086000D8F7809590958E0F9F1F0895FC016150D9
:10087000704001900110D8F7809590958E0F9F1FC2
:1008800008950F931F93CF93DF93FB01238121FDE5
:1008900003C08FEF9FEF2CC022FF16C04681578107
:1008A000248135814217530744F4A081B1819D0111
:1008B0002F5F3F4F318320838C93268137812F5FB9
:1008C0003F4F3783268314C08B01EC01FB0100846A
:1008D000F185E02D0995892BE1F6D80116968D91C9
:1008E0009C911797019617969C938E931697CE011D
:1008F000DF91CF911F910F910895FA01AA27283017
:1009000051F1203181F1E8946F936E7F6E5F7F4FDC
:100910008F4F9F4FAF4FB1E03ED0B4E03CD0670F58
:10092000781F891F9A1FA11D680F791F8A1F911DAB
:10093000A11D6A0F711D811D911DA11D20D009F4FB
:1009400068943F912AE0269F11243019305D31933D
:10095000DEF6CF010895462F4770405D4193B3E026
:100960000FD0C9F7F6CF462F4F70405D4A3318F0CD
:10097000495D31FD4052419302D0A9F7EACFB4E07E
:10098000A6959795879577956795BA95C9F7009736
:100990006105710508959B01AC010A2E06945795D7
:1009A000479537952795BA95C9F7620F731F841F2E
:1009B000951FA01D08952F923F924F925F926F92C4
:1009C0007F928F929F92AF92BF92CF92DF92EF92DF
:1009D000FF920F931F93CF93DF93CDB7DEB7CA1B60
:1009E000DB0B0FB6F894DEBF0FBECDBF09942A888B
:1009F000398848885F846E847D848C849B84AA8433
:100A0000B984C884DF80EE80FD800C811B81AA81BF
:100A1000B981CE0FD11D0FB6F894DEBF0FBECDBF8A
:080A2000ED010895F894FFCFE9
:100A280025733A2025752E2530337520560D0A007A
:0A0A3800506F743100506F743200EB
:00000001FF
