:100000000C9434000C9449000C9449000C94490061
:100010000C9449000C9449000C9449000C9449003C
:100020000C9449000C9449000C9449000C9449002C
:100030000C9449000C9449000C9449000C9449001C
:100040000C9449000C9449000C9449000C9449000C
:100050000C9449000C9449000C9449000C944900FC
:100060000C9449000C94490011241FBECFEFD8E036
:10007000DEBFCDBF11E0A0E0B1E0E2EAF5E002C0F2
:1000800005900D92A232B107D9F70E94D6010C94C7
:10009000CF020C94000080E480937C0087E880937A
:1000A0007A000895ECE7F0E09081907F8F70892BC3
:1000B0008083EAE7F0E080818064808380917A0029
:1000C00086FDFCCF8091780090917900089585B1EC
:1000D000886085B985E08A95F1F7000085B1877F52
:1000E00085B908959BB1282F220F220F9370922B70
:1000F0009BB995B19C7F8295869586958370892B57
:1001000085B90E9467000895CF93C82F85B18B7F72
:1001100085B98C2F0E947200C150C23038F48FE331
:100120009FE10197F1F700C0000006C08FE891E061
:100130000197F1F700C00000CF91089595B1946048
:1001400095B90E9472008FE891E00197F1F700C025
:10015000000008958AB18C6F8AB984B1836084B934
:1001600084B18C6084B985B1837F85B92FEF89EF25
:1001700090E0215080409040E1F700C0000085B140
:100180008B7F85B980E30E9472008FE19EE4019726
:10019000F1F700C0000080E30E94720087E592E062
:1001A0000197F1F700C0000080E30E94720087E52C
:1001B00092E00197F1F700C0000088E30E948400FC
:1001C0008CE00E94840086E00E94840081E00E940E
:1001D00084000895623031F0633031F0613029F4E9
:1001E000805C03C08C5E01C08C5A80680E948400D1
:1001F0000895CF93DF93EC0103C00E949E002196E7
:1002000088818111FACFDF91CF910895CF92DF924B
:10021000EF92FF92CF93DF93EB019C01A2E3B0E05A
:100220000E94C0022FEF33E040E050E00E949E02A7
:1002300069017A01ADECBCEC0E94C002AC0156959C
:10024000479556954795569547959A01220F331F26
:10025000CA01880F991F880F991F880F991F820F55
:10026000931F9601281B390B405D48838EE28983DA
:1002700080E3820F8A8386E58B831C82DF91CF9196
:10028000FF90EF90DF90CF900895CF93DF93AC0174
:10029000FB019C0136952795369527953695279530
:1002A000A5ECB0E20E94C002EC01D295C295CF70DD
:1002B000CD27DF70CD279E01ADECBCEC0E94C002C3
:1002C0009695879596958795969587959C01220F8B
:1002D000331F880F991F880F991F880F991F820F4E
:1002E000931F9E01281B390BC901805D80839A01F1
:1002F0003695279536952795ABE7B4E10E94C00265
:10030000EC01D695C7959E01ADECBCEC0E94C002F5
:100310009695879596958795969587959C01220F3A
:10032000331F880F991F880F991F880F991F820FFD
:10033000931F9E01281B390BC901805D81839A019F
:100340000E94C002EC01D695C795D695C795D69563
:10035000C7959E010E94C0029695879596958795B0
:10036000969587959C01220F331F880F991F880F40
:10037000991F880F991F820F931F9E01281B390B0D
:10038000C901805D8283CE01880F991FCC0FDD1FCC
:10039000CC0FDD1FCC0FDD1FC80FD91F4C1B5D0B11
:1003A000405D43831482DF91CF910895CF93DF9313
:1003B000CDB7DEB72F970FB6F894DEBF0FBECDBF17
:1003C0000E94AA000E944B0060E875E280E090E085
:1003D0000E94560260E080E00E94EA0080E091E026
:1003E0000E94F90000E010E080E00E945200BE018F
:1003F0006F5F7F4F0E94060181E00E945200BE01A4
:100400006A5F7F4F0E94060161E080E00E94EA007F
:10041000CE0101960E94F90061E086E00E94EA00A8
:10042000CE0106960E94F90081E191E00E948402CB
:10043000CE0101960E94840287E191E00E9484022D
:10044000CE0106960E9484028EE191E00E94840211
:100450000E949102882391F00E9497028B3239F416
:100460000F3F23E0120718F40F5F1F4F07C08D32B4
:1004700029F40115110511F001501109BE01655F44
:100480007F4FC8010E94450161E08CE00E94EA00B4
:10049000CE010B960E94F9008FEF93EC29E081507A
:1004A00090402040E1F700C000009ECFDC01CB016E
:1004B000880F991FAA1FBB1F880F991FAA1FBB1F58
:1004C0009C01AD01220F331F441F551F220F331F04
:1004D000441F551F60E074E284EF90E00E949E028A
:1004E000215031093093C5002093C40088E18093E6
:1004F000C10086E08093C20008959091C00095FFEE
:10050000FCCF8093C6000895CF93DF93EC0103C026
:100510000E947D02219688818111FACFDF91CF91CF
:1005200008958091C000881F8827881F08958091B2
:10053000C0008823E4F78091C6000895A1E21A2E36
:10054000AA1BBB1BFD010DC0AA1FBB1FEE1FFF1F77
:10055000A217B307E407F50720F0A21BB30BE40BC7
:10056000F50B661F771F881F991F1A9469F760950E
:100570007095809590959B01AC01BD01CF010895C8
:10058000A29FB001B39FC001A39F700D811D1124D4
:10059000911DB29F700D811D1124911D0895F89435
:0205A000FFCF8B
:1005A200504F54312020504F543220205541525444
:1005B20000504F54313A0020504F54323A000D0A45
:0205C200000037
:00000001FF
