S01500004C61626F7261746F72696F20312E7372656340
S11300000C9434000C945D000C945D000C945D0021
S11300100C945D000C945D000C945D000C945D00E8
S11300200C945D000C945D000C945D000C945D00D8
S11300300C945D000C945D000C9424030C945D00FE
S11300400C945D000C945D000C945D000C945D00B8
S11300500C945D000C945D000C945D000C945D00A8
S11300600C945D000C945D0011241FBECFEFD8E00A
S1130070DEBFCDBF14BE0FB6F894A8958091600082
S1130080886180936000109260000FBE11E0A0E0D0
S1130090B1E0E2E8F7E002C005900D92A03DB1079F
S11300A0D9F721E0A0EDB1E001C01D92A53EB20751
S11300B0E1F70E9449030C94BF030C94000082E012
S11300C084BD93E095BD99EF97BD80936E007894BD
S11300D00895F8946091E1017091E2018091E30147
S11300E09091E40178940895CF92DF92EF92FF9279
S11300F00F931F93CF938C01FC01EE0FFF1FEB5462
S1130100FE4F0190F081E02DA481B5818C9190E0A7
S1130110068002C0959587950A94E2F7C82FC170AE
S1130120F801ED5FFE4F80818C1769F00E94690031
S1130130F801EE0FFF1FEE0FFF1FE053FE4F608329
S11301407183828393830E946900F801EE0FFF1F7D
S1130150EE0FFF1FE053FE4FC080D180E280F3809A
S1130160DC01CB018C199D09AE09BF094A97A10591
S1130170B10570F0F801E050FF4F80818C1751F009
S1130180F801E050FF4FC083CC2331F080E005C07C
S113019080E003C080E001C081E0F801ED5FFE4F24
S11301A0C083CF911F910F91FF90EF90DF90CF907C
S11301B0089520E030E01AC0F901EE0FFF1FEE0FA2
S11301C0FF1FEE0FFF1FE21BF30BE45BFE4FA0814A
S11301D0B1814C9181E090E0068002C0880F991FA4
S11301E00A94E2F7842B8C932F5F3F4F273031051D
S11301F01CF308958A30910508F44DC00E94D9007B
S11302000895FC01EE0FFF1FEE0FFF1FEE0FFF1FFF
S1130210E81BF90BEA5FFE4FE20FF31F4081442312
S113022011F040E001C041E04423C9F0F901EE0FB0
S1130230FF1FEE0FFF1FEE0FFF1FE21BF30BE45B2C
S1130240FE4FA081B1816C9141E050E0068002C074
S1130250440F551F0A94E2F7462B4C9319C0F90139
S1130260EE0FFF1FEE0FFF1FEE0FFF1FE21BF30B3E
S1130270E45BFE4FA081B1816C9141E050E00680C7
S113028002C0440F551F0A94E2F7409546234C934D
S11302902F5F3F4F02C020E030E0273031050CF4DF
S11302A0B0CF089580E090E07DC02091DF013091CF
S11302B0E001082E02C0359527950A94E2F720FF45
S11302C019C0FC01EE0FFF1FEE0FFF1FEE0FFF1F03
S11302D0E81BF90BE756FE4FA081B1814C9121E058
S11302E030E0068002C0220F331F0A94E2F7242B69
S11302F02C9319C0FC01EE0FFF1FEE0FFF1FEE0F32
S1130300FF1FE81BF90BE756FE4FA081B1814C910A
S113031021E030E0068002C0220F331F0A94E2F786
S1130320209524232C932091DD013091DE01082EA9
S113033002C0359527950A94E2F720FF19C0FC0105
S1130340EE0FFF1FEE0FFF1FEE0FFF1FE81BF90B51
S1130350E358FE4FA081B1814C9121E030E006804A
S113036002C0220F331F0A94E2F7242B2C9319C0E6
S1130370FC01EE0FFF1FEE0FFF1FEE0FFF1FE81B28
S1130380F90BE358FE4FA081B1814C9121E030E09C
S1130390068002C0220F331F0A94E2F7209524231B
S11303A02C930196843091050CF47FCF0895CF935C
S11303B0DF9340E050E02BC0FA01EE0FFF1FEE0F79
S11303C0FF1FEE0FFF1FE41BF50BEF01C756DE4FB7
S11303D0A881B9816C9181E090E09C010E8002C0FB
S11303E0220F331F0A94E2F7209526232C93E35817
S11303F0FE4FA081B1812C91068002C0880F991F05
S11304000A94E2F7809582238C934F5F5F4F4430C8
S1130410510594F2DF91CF9108951092E00110926A
S1130420DF011092DE011092DD010E94D7010E94CB
S1130430D9001092DC010895CF93DF9387B18E7FAA
S113044087B988B1816088B987B18D7F87B988B150
S1130450826088B987B18B7F87B988B1846088B995
S113046020E030E029C0F901EE0FFF1FEE0FFF1F5F
S1130470EE0FFF1FE21BF30BEF01C756DE4FAA81FD
S1130480BB816C9181E090E0AC010E8002C0440F0E
S1130490551F0A94E2F7462B4C93E358FE4FA28172
S11304A0B3814C91068002C0880F991F0A94E2F729
S11304B0842B8C932F5F3F4F24303105A4F220E02E
S11304C030E01AC0F901EE0FFF1FEE0FFF1FEE0F11
S11304D0FF1FE21BF30BE45BFE4FA281B3814C913F
S11304E081E090E0068002C0880F991F0A94E2F729
S11304F0842B8C932F5F3F4F273031051CF30E94D0
S1130500D7010E94D900DF91CF910895CF93DF9353
S1130510C3E0D0E00DC0CE010E94FA002FEF83EDBE
S113052090E3215080409040E1F700C00000219703
S11305301C161D0684F380E090E00E94FA002FEF61
S113054087E893E1215080409040E1F700C000002B
S11305500E94D900DF91CF9108950F931F93CF93F9
S1130560DF938C0183E08093DC010E94D701C0E01B
S1130570D0E05EC0C8010E94FA0001301105F1F01C
S113058020E030E03BC0F901EE0FFF1FEE0FFF1F2C
S1130590EE0FFF1FE21BF30BE756FE4FA081B18164
S11305A04C9181E090E0068002C0880F991F0A9464
S11305B0E2F7842B8C932F5F3F4F02C020E030E0A2
S11305C02430310504F31DC0F901EE0FFF1FEE0FB7
S11305D0FF1FEE0FFF1FE21BF30BE358FE4FA0813A
S11305E0B1814C9181E090E0068002C0880F991F90
S11305F00A94E2F7842B8C932F5F3F4F243031050C
S11306001CF32FEF84E39CE0215080409040E1F7FD
S113061000C000000E94D9000E94D7012FEF84E39C
S11306209CE0215080409040E1F700C000002196FA
S1130630C830D1050CF49ECFC8010E94FA00DF91A6
S1130640CF911F910F9108951F920F920FB60F92A1
S113065011248F939F93AF93BF938091E101909165
S1130660E201A091E301B091E4010196A11DB11D45
S11306708093E1019093E201A093E301B093E4013C
S1130680BF91AF919F918F910F900FBE0F901F90CC
S113069018950E945F000E941C028091DC01813049
S11306A089F030F08230F1F0833009F45EC0F5CF88
S11306B080E090E00E947400882379F381E08093C5
S11306C0DC01EBCF0E9486021092E0011092DF0160
S11306D01092DE011092DD010E94D70182E0809326
S11306E0DC01DBCF81E090E00E947400C82F82E03F
S11306F090E00E947400CC2369F02091DF013091D6
S1130700E0012F30310534F42F5F3F4F3093E00187
S11307102093DF01882369F02091DD013091DE010F
S11307202F30310534F42F5F3F4F3093DE01209397
S1130730DD01C11101C081110E9452018091DF01CC
S11307409091E0010F972CF081E090E00E94AD02BF
S1130750A4CF8091DD019091DE010F970CF49DCF21
S113076082E090E00E94AD0298CF80E090E00E9489
S11307707400882309F491CF0E940D028ECFF8945F
S1050780FFCFA5
S11307820101010101010101010101010000010155
S1130792000000000101000101000101010101004A
S11307A20001000101000001010100010100010139
S11307B20100010101010101010100000000010128
S11307C201010101010101010100010125002400CF
S11307D22300022500240023000325002400230013
S11307E204250024002300052800270026000328EE
S11307F2002700260004280027002600052B002AD3
S1130802002900062B002A002900072500240023C2
S11308120000250024002300012B002A00290002E5
S11308222B002A002900032B002A002900042B0094
S11308322A00290005C901C201BB0128002700269C
S113084200022800270026000128002700260000B5
S9030000FC
