S01500004C61626F7261746F72696F20312E7372656340
S11300000C9434000C9451000C9451000C94510045
S11300100C9451000C9451000C9451000C94510018
S11300200C9451000C9451000C9451000C94510008
S11300300C9451000C9451000C94F2000C94510057
S11300400C9451000C9451000C9451000C945100E8
S11300500C9451000C9451000C9451000C945100D8
S11300600C9451000C94510011241FBECFEFD8E022
S1130070DEBFCDBF11E0A0E0B1E0E4EAF2E002C0EF
S113008005900D92AA36B107D9F721E0AAE6B1E0AE
S113009001C01D92AC36B207E1F70E9409010C942D
S11300A050010C940000FC01662371F0A081B18121
S11300B02C9181E090E0048002C0880F991F0A947B
S11300C0E2F7822B8C930895A081B1814C9121E0B9
S11300D030E0C901048002C0880F991F0A94E2F736
S11300E0809584238C930895CF93DF93C0E0D0E070
S11300F00DC0CE01880F991F880F991F8C0F9D1F6B
S113010061E08A5B9E4F0E9453002196C730D1055F
S113011084F3DF91CF91089520E030E018C0F90115
S1130120EE0FFF1FEE0FFF1FE20FF31FEA5BFE4F00
S1130130A281B3814C9181E090E0048002C0880FD9
S1130140991F0A94E2F7842B8C932F5F3F4F27303B
S113015031052CF30E94740008950F931F93CF93DD
S1130160DF938C010A9718F10E94740025C0F801EE
S1130170EE0FFF1FEE0FFF1FEE0FFF1FE01BF10B33
S1130180E050FF4FEC0FFD1F8081882311F060E0E9
S113019001C061E0CE01880F991F880F991F8C0F51
S11301A09D1F8A5B9E4F0E945300219602C0C0E0AF
S11301B0D0E0C730D105DCF2DF91CF911F910F91D0
S11301C0089582E084BD93E095BD99EF97BD809337
S11301D06E0078940895F89480916A0190916B016F
S11301E0789408951F920F920FB60F9211248F9353
S11301F09F9380916A0190916B01019690936B019A
S113020080936A019F918F910F900FBE0F901F9062
S113021018950FB6F894A895809160008861809332
S11302206000109260000FBE0E94E1000E948C00EA
S113023085E090E00E94AD000E94EB006C01990FF4
S1130240EE08FF0810E0C5E0D0E00E94EB00092EA4
S1130250000CAA0BBB0B8C199D09AE09BF09883E83
S11302609340A105B10588F30E94EB006C01990F3E
S1130270EE08FF0811110CC01C161D062CF4219762
S1130280CE010E94AD00E1CF0E94740011E0DDCFE9
S113029085E090E00E94AD0010E0C5E0D0E0D5CF4D
S10702A0F894FFCFFC
S11302A4010101010101000001010000000001013C
S11302B4000101000101010101000001000101002C
S11302C4000101010001010001010100010101011A
S11302D4010101010000000001010101010101010A
S11302E4010101000101250024000225002400036A
S11302F425002400042500240005280027000328E1
S10D0304002700042800270005006C
S9030000FC
