:100000000C9434000C9451000C9451000C94510049
:100010000C9451000C9451000C9451000C9451001C
:100020000C9451000C9451000C9451000C9451000C
:100030000C9451000C9451000C9401010C9451004B
:100040000C9451000C9451000C9451000C945100EC
:100050000C9451000C9451000C9451000C945100DC
:100060000C9451000C94510011241FBECFEFD8E026
:10007000DEBFCDBF11E0A0E0B1E0EEE1F3E002C0F1
:1000800005900D92AA36B107D9F721E0AAE6B1E0B2
:1000900001C01D92AE36B207E1F70E9426010C9412
:1000A0008D010C940000FC01662371F0A081B181E8
:1000B0002C9181E090E0048002C0880F991F0A947F
:1000C000E2F7822B8C930895A081B1814C9121E0BD
:1000D00030E0C901048002C0880F991F0A94E2F73A
:1000E000809584238C930895CF93DF93C0E0D0E074
:1000F0000DC0CE01880F991F880F991F8C0F9D1F6F
:1001000061E08A5B9E4F0E9453002196C730D10563
:1001100084F3DF91CF91089520E030E018C0F90119
:10012000EE0FFF1FEE0FFF1FE20FF31FEA5BFE4F04
:10013000A281B3814C9181E090E0048002C0880FDD
:10014000991F0A94E2F7842B8C932F5F3F4F27303F
:1001500031052CF30E94740008950F931F93CF93E1
:10016000DF938C010A9718F10E94740025C0F801F2
:10017000EE0FFF1FEE0FFF1FEE0FFF1FE01BF10B37
:10018000E050FF4FEC0FFD1F8081882311F060E0ED
:1001900001C061E0CE01880F991F880F991F8C0F55
:1001A0009D1F8A5B9E4F0E945300219602C0C0E0B3
:1001B000D0E0C730D105DCF2DF91CF911F910F91D4
:1001C000089582E084BD93E095BD99EF97BD80933B
:1001D0006E00789408952FB7F89460916A01709139
:1001E0006B0180916C0190916D012FBF089596B1C4
:1001F00081E08927817008950E94F7008111FCCF6A
:1002000008951F920F920FB60F9211248F939F9310
:10021000AF93BF9380916A0190916B01A0916C01A3
:10022000B0916D010196A11DB11D80936A0190935B
:100230006B01A0936C01B0936D01BF91AF919F9141
:100240008F910F900FBE0F901F9018950FB6F894D6
:10025000A895809160008861809360001092600092
:100260000FBE0E94E1000E948C0087B18E7F87B98B
:1002700088B1816088B90E947400812C912C54014E
:10028000C1E0D5E001C0C1E0C13029F50E94F7000E
:100290008823D1F30E94EB006B017C010E94EB00EC
:1002A000DC01CB018C199D09AE09BF094E97A10550
:1002B000B105A0F30E94F700882331F30E94FC00EF
:1002C00085E090E00E94AD000E94EB004B015C01D4
:1002D000C0E0D5E0D9CFC111D7CF0E94EB00DC013F
:1002E000CB0188199909AA09BB09883E9340A10549
:1002F000B10550F288EE880E83E0981EA11CB11C57
:100300001D163CF4D1508D2F0D2E000C990B0E9420
:0E031000AD00DD2309F4B7CFB7CFF894FFCFCF
:10031E0001010101010100000101000000000101C5
:10032E0000010100010101010100000100010100B5
:10033E0000010101000101000101010001010101A3
:10034E000101010100000000010101010101010193
:10035E0001010100010125002400022500240003F3
:10036E00250024000425002400052800270003286A
:0A037E0000270004280027000500F6
:00000001FF
