:100000000C9434000C9451000C9451000C94510049
:100010000C9451000C9451000C9451000C9451001C
:100020000C9451000C9451000C9451000C9451000C
:100030000C9451000C9451000C94FE010C9451004E
:100040000C9451000C9451000C9451000C945100EC
:100050000C9451000C9451000C9451000C945100DC
:100060000C9451000C94510011241FBECFEFD8E026
:10007000DEBFCDBF11E0A0E0B1E0EEEDF5E002C0E3
:1000800005900D92A237B107D9F721E0A2E7B1E0C0
:1000900001C01D92A938B207E1F70E9423020C9417
:1000A000ED020C940000FC01662371F0A081B18187
:1000B0002C9181E090E0048002C0880F991F0A947F
:1000C000E2F7822B8C930895A081B1814C9121E0BD
:1000D00030E0C901048002C0880F991F0A94E2F73A
:1000E000809584238C930895CF93DF93C0E0D0E074
:1000F0000DC0CE01880F991F880F991F8C0F9D1F6F
:1001000061E0825B9E4F0E9453002196C730D1056B
:1001100084F3DF91CF91089520E030E018C0F90119
:10012000EE0FFF1FEE0FFF1FE20FF31FE25BFE4F0C
:10013000A281B3814C9181E090E0048002C0880FDD
:10014000991F0A94E2F7842B8C932F5F3F4F27303F
:1001500031052CF30E94740008950F931F93CF93E1
:10016000DF938C010A9718F10E94740025C0F801F2
:10017000EE0FFF1FEE0FFF1FEE0FFF1FE01BF10B37
:10018000E85FFE4FEC0FFD1F8081882311F060E0D7
:1001900001C061E0CE01880F991F880F991F8C0F55
:1001A0009D1F825B9E4F0E945300219602C0C0E0BB
:1001B000D0E0C730D105DCF2DF91CF911F910F91D4
:1001C000089582E084BD93E095BD99EF97BD80933B
:1001D0006E0078940895F89460918501709186017D
:1001E00080918701909188017894089587B1887FE4
:1001F00087B988B1876088B9089526B130E0A90130
:1002000002C0559547958A95E2F7CA018170089515
:10021000CF92DF92EF92FF921F93CF93DF93C82F7D
:100220000E94FD00182FD0E0FE01EB5FFE4F8081A1
:10023000181769F00E94EB00FE01EE0FFF1FEE0F92
:10024000FF1FE758FE4F60837183828393830E9470
:10025000EB00FE01EE0FFF1FEE0FFF1FE758FE4FF2
:10026000C080D180E280F380DC01CB018C199D0934
:10027000AE09BF094A97A105B10570F0FE01EE5F16
:10028000FE4F8081181751F0FE01EE5FFE4F108384
:10029000112331F080E005C080E003C080E001C0A0
:1002A00081E0CB5FDE4F1883DF91CF911F91FF90EC
:1002B000EF90DF90CF9008958AB18C638AB908954A
:1002C00080FF04C09BB194609BB903C09BB19B7F2E
:1002D0009BB981FF04C09BB198609BB903C09BB1DF
:1002E000977F9BB982FF04C09BB190619BB903C00B
:1002F0009BB19F7E9BB983FF04C08BB180628BB999
:1003000008958BB18F7D8BB908958AB1806C8AB9BD
:1003100084B1836084B9089580FF04C09BB1906468
:100320009BB903C09BB19F7B9BB981FF04C09BB16C
:1003300090689BB903C09BB19F779BB982FF04C0B3
:1003400095B1916095B903C095B19E7F95B983FF32
:1003500004C085B1826085B9089585B18D7F85B966
:100360000895882351F0282F30E02150310981E091
:1003700001C0880F2A95EAF7089580E00895CF9389
:10038000DF93D82F83E08093780180E00E946001A2
:1003900080E00E948C01C0E028C08D2F90E00E9478
:1003A000AD00D13021F48FE00E94600103C08FE0E6
:1003B0000E948C012FEF84E39CE02150804090400C
:1003C000E1F700C000000E94740080E00E9460011C
:1003D00080E00E948C012FEF84E39CE0215080405C
:1003E0009040E1F700C00000CF5FC830B0F28D2F21
:1003F00090E00E94AD00DF91CF9108951F920F927F
:100400000FB60F9211248F939F93AF93BF93809158
:10041000850190918601A0918701B0918801019694
:10042000A11DB11D8093850190938601A093870142
:10043000B0938801BF91AF919F918F910F900FBEA4
:100440000F901F9018950FB6F894A89580916000B2
:10045000886180936000109260000FBE0E94E100EE
:100460000E948C000E94F6000E945C010E9485019F
:1004700080E00E94600180E00E948C010E94740074
:1004800080917801813019F138F0823009F45DC033
:10049000833009F48DC0F4CF80E00E9408018823E6
:1004A00079F385E090E090930101809300010E9430
:1004B000AD000E94EB006093720170937301809312
:1004C00074019093750181E080937801D9CF0E94E7
:1004D000EB00009172011091730120917401309131
:1004E0007501DC01CB01801B910BA20BB30B883E85
:1004F0009340A105B10520F20E94EB0060937201C8
:100500007093730180937401909375018091000141
:10051000909101011816190644F401979093010176
:10052000809300010E94AD00ABCF0E947400109236
:1005300077011092760180E00E94600180E00E94C5
:100540008C0182E0809378019BCF81E00E940801BA
:10055000D82F82E00E940801C82FDD2359F0809136
:100560007701843038F48F5F809377010E94B10166
:100570000E946001CC2359F080917601843038F4D8
:100580008F5F809376010E94B1010E948C0180915F
:100590007701843020F081E00E94BF0171CF80910B
:1005A0007601843008F46CCF82E00E94BF0168CFEE
:1005B00080E00E940801882309F462CF109277013D
:1005C0001092760180E00E94600180E00E948C0120
:0E05D0000E9474001092780153CFF894FFCF70
:1005DE0005000101010101010101010101010000FC
:1005EE0001010000000001010001010001010101F3
:1005FE0001000001000101000001010100010100E4
:10060E0001010100010101010101010100000000D1
:10061E00010101010101010101010100010125009A
:10062E0024000225002400032500240004250024B4
:10063E0000052800270003280027000428002700B3
:02064E000500A5
:00000001FF
